:060000000A128A110C280F
:10000800FE00030EF2000A08F3000A128A11D12832
:100018000A128A110F28F801F90183120313B20199
:10002800B301B401B501B601B701B801B901830143
:100038000A128A11882883120313A801A31F2528EE
:1000480026282D28A209A309A20A0319A30AA80190
:10005800A80AA51F302831283A28A409A509A40A06
:100068000319A50A0130A6002608A806A901AA01B5
:10007800220823040319412842287928A701A70A3E
:10008800502801300310A20DA30DFF3E031D462882
:100098000130A6002608A707A31F5328542845287F
:1000A80001300310A90DAA0DFF3E031D5528230892
:1000B8002502031D612822082402031C64286528E0
:1000C8006C282208A4022308031CA503A5022914EE
:1000D80001300310A30CA20CFF3E031D6D28013054
:1000E800A702031D782879285428280803197D2891
:1000F8007E288328A909AA09A90A0319AA0A2A088D
:10010800A3002908A20008000F30831603139F04D8
:100118000A128A1159210A128A1100300A128A1108
:100128002F210A128A11063083120313B1001330EB
:10013800B000AD30AF00AF0B9F28B00B9F28B10BBC
:100148009F285A300A128A112F210A128A11063062
:1001580083120313B1001330B000AD30AF00AF0B02
:10016800B328B00BB328B10BB328B4300A128A11E4
:100178002F210A128A11063083120313B10013309B
:10018800B000AD30AF00AF0BC728B00BC728B10B1C
:10019800C72891280A128A110C280B1DD428D528A3
:1001A800FD287808013EF80079080318013E003E52
:1001B800F90001307902EB3003197802031CE528B5
:1001C800E628E828F801F901831203133308F00040
:1001D800F10171087902031DF328700878020318E9
:1001E800F628F728F9288814FA2888103230810070
:1001F8000B1173088A00720E8300FE0E7E0E090032
:1002080083120313A001A101741C0B290C291429C2
:10021800760883120313A0070318A10A7708A10719
:1002280001300310F60DF70DFF3E031D15290130AF
:100238000310F50CF40CFF3E031D1C29740875040B
:10024800031D272928290829831203132108F500EB
:100258002008F400080083120313AE00B430A20093
:100268000030A3002E08AB00AC012B08F4002C08CA
:10027800F5002E30F6000030F7000A128A1104212A
:100288000A128A11750883120313A5007408A400C2
:100298000A128A111F200A128A11831203132208D4
:1002A8000E3EAD002D08B30008008312031388101A
:1002B80088108B178B160B115030900010143230A9
:0402C80081000800A9
:08400000FF3FFF3FFF3FFF3FC0
:02400E00393F38
:00000001FF
